{
  "_format": "hh-sol-artifact-1",
  "contractName": "KoChildMintableERC721",
  "sourceName": "contracts/KoChildMintableERC721.sol",
  "abi": [
    {
      "inputs": [
        {
          "internalType": "string",
          "name": "name_",
          "type": "string"
        },
        {
          "internalType": "string",
          "name": "symbol_",
          "type": "string"
        },
        {
          "internalType": "address",
          "name": "childChainManager",
          "type": "address"
        }
      ],
      "stateMutability": "nonpayable",
      "type": "constructor"
    },
    {
      "anonymous": false,
      "inputs": [
        {
          "indexed": true,
          "internalType": "address",
          "name": "owner",
          "type": "address"
        },
        {
          "indexed": true,
          "internalType": "address",
          "name": "approved",
          "type": "address"
        },
        {
          "indexed": true,
          "internalType": "uint256",
          "name": "tokenId",
          "type": "uint256"
        }
      ],
      "name": "Approval",
      "type": "event"
    },
    {
      "anonymous": false,
      "inputs": [
        {
          "indexed": true,
          "internalType": "address",
          "name": "owner",
          "type": "address"
        },
        {
          "indexed": true,
          "internalType": "address",
          "name": "operator",
          "type": "address"
        },
        {
          "indexed": false,
          "internalType": "bool",
          "name": "approved",
          "type": "bool"
        }
      ],
      "name": "ApprovalForAll",
      "type": "event"
    },
    {
      "anonymous": false,
      "inputs": [
        {
          "indexed": false,
          "internalType": "address",
          "name": "userAddress",
          "type": "address"
        },
        {
          "indexed": false,
          "internalType": "address payable",
          "name": "relayerAddress",
          "type": "address"
        },
        {
          "indexed": false,
          "internalType": "bytes",
          "name": "functionSignature",
          "type": "bytes"
        }
      ],
      "name": "MetaTransactionExecuted",
      "type": "event"
    },
    {
      "anonymous": false,
      "inputs": [
        {
          "indexed": true,
          "internalType": "bytes32",
          "name": "role",
          "type": "bytes32"
        },
        {
          "indexed": true,
          "internalType": "bytes32",
          "name": "previousAdminRole",
          "type": "bytes32"
        },
        {
          "indexed": true,
          "internalType": "bytes32",
          "name": "newAdminRole",
          "type": "bytes32"
        }
      ],
      "name": "RoleAdminChanged",
      "type": "event"
    },
    {
      "anonymous": false,
      "inputs": [
        {
          "indexed": true,
          "internalType": "bytes32",
          "name": "role",
          "type": "bytes32"
        },
        {
          "indexed": true,
          "internalType": "address",
          "name": "account",
          "type": "address"
        },
        {
          "indexed": true,
          "internalType": "address",
          "name": "sender",
          "type": "address"
        }
      ],
      "name": "RoleGranted",
      "type": "event"
    },
    {
      "anonymous": false,
      "inputs": [
        {
          "indexed": true,
          "internalType": "bytes32",
          "name": "role",
          "type": "bytes32"
        },
        {
          "indexed": true,
          "internalType": "address",
          "name": "account",
          "type": "address"
        },
        {
          "indexed": true,
          "internalType": "address",
          "name": "sender",
          "type": "address"
        }
      ],
      "name": "RoleRevoked",
      "type": "event"
    },
    {
      "anonymous": false,
      "inputs": [
        {
          "indexed": true,
          "internalType": "address",
          "name": "from",
          "type": "address"
        },
        {
          "indexed": true,
          "internalType": "address",
          "name": "to",
          "type": "address"
        },
        {
          "indexed": true,
          "internalType": "uint256",
          "name": "tokenId",
          "type": "uint256"
        }
      ],
      "name": "Transfer",
      "type": "event"
    },
    {
      "anonymous": false,
      "inputs": [
        {
          "indexed": true,
          "internalType": "address",
          "name": "from",
          "type": "address"
        },
        {
          "indexed": true,
          "internalType": "address",
          "name": "to",
          "type": "address"
        },
        {
          "indexed": true,
          "internalType": "uint256",
          "name": "tokenId",
          "type": "uint256"
        },
        {
          "indexed": false,
          "internalType": "bytes",
          "name": "metaData",
          "type": "bytes"
        }
      ],
      "name": "TransferWithMetadata",
      "type": "event"
    },
    {
      "anonymous": false,
      "inputs": [
        {
          "indexed": true,
          "internalType": "address",
          "name": "user",
          "type": "address"
        },
        {
          "indexed": false,
          "internalType": "uint256[]",
          "name": "tokenIds",
          "type": "uint256[]"
        }
      ],
      "name": "WithdrawnBatch",
      "type": "event"
    },
    {
      "inputs": [],
      "name": "BATCH_LIMIT",
      "outputs": [
        {
          "internalType": "uint256",
          "name": "",
          "type": "uint256"
        }
      ],
      "stateMutability": "view",
      "type": "function"
    },
    {
      "inputs": [],
      "name": "DEFAULT_ADMIN_ROLE",
      "outputs": [
        {
          "internalType": "bytes32",
          "name": "",
          "type": "bytes32"
        }
      ],
      "stateMutability": "view",
      "type": "function"
    },
    {
      "inputs": [],
      "name": "DEPOSITOR_ROLE",
      "outputs": [
        {
          "internalType": "bytes32",
          "name": "",
          "type": "bytes32"
        }
      ],
      "stateMutability": "view",
      "type": "function"
    },
    {
      "inputs": [],
      "name": "ERC712_VERSION",
      "outputs": [
        {
          "internalType": "string",
          "name": "",
          "type": "string"
        }
      ],
      "stateMutability": "view",
      "type": "function"
    },
    {
      "inputs": [
        {
          "internalType": "address",
          "name": "to",
          "type": "address"
        },
        {
          "internalType": "uint256",
          "name": "tokenId",
          "type": "uint256"
        }
      ],
      "name": "approve",
      "outputs": [],
      "stateMutability": "nonpayable",
      "type": "function"
    },
    {
      "inputs": [
        {
          "internalType": "address",
          "name": "owner",
          "type": "address"
        }
      ],
      "name": "balanceOf",
      "outputs": [
        {
          "internalType": "uint256",
          "name": "",
          "type": "uint256"
        }
      ],
      "stateMutability": "view",
      "type": "function"
    },
    {
      "inputs": [],
      "name": "baseURI",
      "outputs": [
        {
          "internalType": "string",
          "name": "",
          "type": "string"
        }
      ],
      "stateMutability": "view",
      "type": "function"
    },
    {
      "inputs": [
        {
          "internalType": "address",
          "name": "user",
          "type": "address"
        },
        {
          "internalType": "bytes",
          "name": "depositData",
          "type": "bytes"
        }
      ],
      "name": "deposit",
      "outputs": [],
      "stateMutability": "nonpayable",
      "type": "function"
    },
    {
      "inputs": [
        {
          "internalType": "uint256",
          "name": "tokenId",
          "type": "uint256"
        }
      ],
      "name": "encodeTokenMetadata",
      "outputs": [
        {
          "internalType": "bytes",
          "name": "",
          "type": "bytes"
        }
      ],
      "stateMutability": "view",
      "type": "function"
    },
    {
      "inputs": [
        {
          "internalType": "address",
          "name": "userAddress",
          "type": "address"
        },
        {
          "internalType": "bytes",
          "name": "functionSignature",
          "type": "bytes"
        },
        {
          "internalType": "bytes32",
          "name": "sigR",
          "type": "bytes32"
        },
        {
          "internalType": "bytes32",
          "name": "sigS",
          "type": "bytes32"
        },
        {
          "internalType": "uint8",
          "name": "sigV",
          "type": "uint8"
        }
      ],
      "name": "executeMetaTransaction",
      "outputs": [
        {
          "internalType": "bytes",
          "name": "",
          "type": "bytes"
        }
      ],
      "stateMutability": "payable",
      "type": "function"
    },
    {
      "inputs": [
        {
          "internalType": "uint256",
          "name": "tokenId",
          "type": "uint256"
        }
      ],
      "name": "getApproved",
      "outputs": [
        {
          "internalType": "address",
          "name": "",
          "type": "address"
        }
      ],
      "stateMutability": "view",
      "type": "function"
    },
    {
      "inputs": [],
      "name": "getChainId",
      "outputs": [
        {
          "internalType": "uint256",
          "name": "",
          "type": "uint256"
        }
      ],
      "stateMutability": "view",
      "type": "function"
    },
    {
      "inputs": [],
      "name": "getDomainSeperator",
      "outputs": [
        {
          "internalType": "bytes32",
          "name": "",
          "type": "bytes32"
        }
      ],
      "stateMutability": "view",
      "type": "function"
    },
    {
      "inputs": [
        {
          "internalType": "address",
          "name": "user",
          "type": "address"
        }
      ],
      "name": "getNonce",
      "outputs": [
        {
          "internalType": "uint256",
          "name": "nonce",
          "type": "uint256"
        }
      ],
      "stateMutability": "view",
      "type": "function"
    },
    {
      "inputs": [
        {
          "internalType": "bytes32",
          "name": "role",
          "type": "bytes32"
        }
      ],
      "name": "getRoleAdmin",
      "outputs": [
        {
          "internalType": "bytes32",
          "name": "",
          "type": "bytes32"
        }
      ],
      "stateMutability": "view",
      "type": "function"
    },
    {
      "inputs": [
        {
          "internalType": "bytes32",
          "name": "role",
          "type": "bytes32"
        },
        {
          "internalType": "uint256",
          "name": "index",
          "type": "uint256"
        }
      ],
      "name": "getRoleMember",
      "outputs": [
        {
          "internalType": "address",
          "name": "",
          "type": "address"
        }
      ],
      "stateMutability": "view",
      "type": "function"
    },
    {
      "inputs": [
        {
          "internalType": "bytes32",
          "name": "role",
          "type": "bytes32"
        }
      ],
      "name": "getRoleMemberCount",
      "outputs": [
        {
          "internalType": "uint256",
          "name": "",
          "type": "uint256"
        }
      ],
      "stateMutability": "view",
      "type": "function"
    },
    {
      "inputs": [
        {
          "internalType": "bytes32",
          "name": "role",
          "type": "bytes32"
        },
        {
          "internalType": "address",
          "name": "account",
          "type": "address"
        }
      ],
      "name": "grantRole",
      "outputs": [],
      "stateMutability": "nonpayable",
      "type": "function"
    },
    {
      "inputs": [
        {
          "internalType": "bytes32",
          "name": "role",
          "type": "bytes32"
        },
        {
          "internalType": "address",
          "name": "account",
          "type": "address"
        }
      ],
      "name": "hasRole",
      "outputs": [
        {
          "internalType": "bool",
          "name": "",
          "type": "bool"
        }
      ],
      "stateMutability": "view",
      "type": "function"
    },
    {
      "inputs": [
        {
          "internalType": "address",
          "name": "owner",
          "type": "address"
        },
        {
          "internalType": "address",
          "name": "operator",
          "type": "address"
        }
      ],
      "name": "isApprovedForAll",
      "outputs": [
        {
          "internalType": "bool",
          "name": "",
          "type": "bool"
        }
      ],
      "stateMutability": "view",
      "type": "function"
    },
    {
      "inputs": [
        {
          "internalType": "address",
          "name": "user",
          "type": "address"
        },
        {
          "internalType": "uint256",
          "name": "tokenId",
          "type": "uint256"
        }
      ],
      "name": "mint",
      "outputs": [],
      "stateMutability": "nonpayable",
      "type": "function"
    },
    {
      "inputs": [
        {
          "internalType": "address",
          "name": "recipient",
          "type": "address"
        },
        {
          "internalType": "string",
          "name": "uri",
          "type": "string"
        }
      ],
      "name": "mint",
      "outputs": [
        {
          "internalType": "uint256",
          "name": "",
          "type": "uint256"
        }
      ],
      "stateMutability": "nonpayable",
      "type": "function"
    },
    {
      "inputs": [],
      "name": "name",
      "outputs": [
        {
          "internalType": "string",
          "name": "",
          "type": "string"
        }
      ],
      "stateMutability": "view",
      "type": "function"
    },
    {
      "inputs": [
        {
          "internalType": "uint256",
          "name": "tokenId",
          "type": "uint256"
        }
      ],
      "name": "ownerOf",
      "outputs": [
        {
          "internalType": "address",
          "name": "",
          "type": "address"
        }
      ],
      "stateMutability": "view",
      "type": "function"
    },
    {
      "inputs": [
        {
          "internalType": "bytes32",
          "name": "role",
          "type": "bytes32"
        },
        {
          "internalType": "address",
          "name": "account",
          "type": "address"
        }
      ],
      "name": "renounceRole",
      "outputs": [],
      "stateMutability": "nonpayable",
      "type": "function"
    },
    {
      "inputs": [
        {
          "internalType": "bytes32",
          "name": "role",
          "type": "bytes32"
        },
        {
          "internalType": "address",
          "name": "account",
          "type": "address"
        }
      ],
      "name": "revokeRole",
      "outputs": [],
      "stateMutability": "nonpayable",
      "type": "function"
    },
    {
      "inputs": [
        {
          "internalType": "address",
          "name": "from",
          "type": "address"
        },
        {
          "internalType": "address",
          "name": "to",
          "type": "address"
        },
        {
          "internalType": "uint256",
          "name": "tokenId",
          "type": "uint256"
        }
      ],
      "name": "safeTransferFrom",
      "outputs": [],
      "stateMutability": "nonpayable",
      "type": "function"
    },
    {
      "inputs": [
        {
          "internalType": "address",
          "name": "from",
          "type": "address"
        },
        {
          "internalType": "address",
          "name": "to",
          "type": "address"
        },
        {
          "internalType": "uint256",
          "name": "tokenId",
          "type": "uint256"
        },
        {
          "internalType": "bytes",
          "name": "_data",
          "type": "bytes"
        }
      ],
      "name": "safeTransferFrom",
      "outputs": [],
      "stateMutability": "nonpayable",
      "type": "function"
    },
    {
      "inputs": [
        {
          "internalType": "address",
          "name": "operator",
          "type": "address"
        },
        {
          "internalType": "bool",
          "name": "approved",
          "type": "bool"
        }
      ],
      "name": "setApprovalForAll",
      "outputs": [],
      "stateMutability": "nonpayable",
      "type": "function"
    },
    {
      "inputs": [
        {
          "internalType": "bytes4",
          "name": "interfaceId",
          "type": "bytes4"
        }
      ],
      "name": "supportsInterface",
      "outputs": [
        {
          "internalType": "bool",
          "name": "",
          "type": "bool"
        }
      ],
      "stateMutability": "view",
      "type": "function"
    },
    {
      "inputs": [],
      "name": "symbol",
      "outputs": [
        {
          "internalType": "string",
          "name": "",
          "type": "string"
        }
      ],
      "stateMutability": "view",
      "type": "function"
    },
    {
      "inputs": [
        {
          "internalType": "uint256",
          "name": "index",
          "type": "uint256"
        }
      ],
      "name": "tokenByIndex",
      "outputs": [
        {
          "internalType": "uint256",
          "name": "",
          "type": "uint256"
        }
      ],
      "stateMutability": "view",
      "type": "function"
    },
    {
      "inputs": [
        {
          "internalType": "address",
          "name": "owner",
          "type": "address"
        },
        {
          "internalType": "uint256",
          "name": "index",
          "type": "uint256"
        }
      ],
      "name": "tokenOfOwnerByIndex",
      "outputs": [
        {
          "internalType": "uint256",
          "name": "",
          "type": "uint256"
        }
      ],
      "stateMutability": "view",
      "type": "function"
    },
    {
      "inputs": [
        {
          "internalType": "uint256",
          "name": "tokenId",
          "type": "uint256"
        }
      ],
      "name": "tokenURI",
      "outputs": [
        {
          "internalType": "string",
          "name": "",
          "type": "string"
        }
      ],
      "stateMutability": "view",
      "type": "function"
    },
    {
      "inputs": [],
      "name": "totalSupply",
      "outputs": [
        {
          "internalType": "uint256",
          "name": "",
          "type": "uint256"
        }
      ],
      "stateMutability": "view",
      "type": "function"
    },
    {
      "inputs": [
        {
          "internalType": "address",
          "name": "from",
          "type": "address"
        },
        {
          "internalType": "address",
          "name": "to",
          "type": "address"
        },
        {
          "internalType": "uint256",
          "name": "tokenId",
          "type": "uint256"
        }
      ],
      "name": "transferFrom",
      "outputs": [],
      "stateMutability": "nonpayable",
      "type": "function"
    },
    {
      "inputs": [
        {
          "internalType": "uint256",
          "name": "tokenId",
          "type": "uint256"
        }
      ],
      "name": "withdraw",
      "outputs": [],
      "stateMutability": "nonpayable",
      "type": "function"
    },
    {
      "inputs": [
        {
          "internalType": "uint256[]",
          "name": "tokenIds",
          "type": "uint256[]"
        }
      ],
      "name": "withdrawBatch",
      "outputs": [],
      "stateMutability": "nonpayable",
      "type": "function"
    },
    {
      "inputs": [
        {
          "internalType": "uint256",
          "name": "tokenId",
          "type": "uint256"
        }
      ],
      "name": "withdrawWithMetadata",
      "outputs": [],
      "stateMutability": "nonpayable",
      "type": "function"
    },
    {
      "inputs": [
        {
          "internalType": "uint256",
          "name": "",
          "type": "uint256"
        }
      ],
      "name": "withdrawnTokens",
      "outputs": [
        {
          "internalType": "bool",
          "name": "",
          "type": "bool"
        }
      ],
      "stateMutability": "view",
      "type": "function"
    }
  ],
  "bytecode": "0x60806040526000600d60006101000a81548160ff0219169083151502179055503480156200002c57600080fd5b50604051620065ae380380620065ae833981810160405281019062000052919062000788565b82826200006c6301ffc9a760e01b6200019e60201b60201c565b8160019080519060200190620000849291906200064f565b5080600290805190602001906200009d9291906200064f565b50620000b66380ac58cd60e01b6200019e60201b60201c565b620000ce635b5e139f60e01b6200019e60201b60201c565b620000e663780e9d6360e01b6200019e60201b60201c565b50506200012e6040518060400160405280601581526020017f4b6f4368696c644d696e7461626c6545524337323100000000000000000000008152506200027660201b60201c565b620001526000801b62000146620002b360201b60201c565b620002cf60201b60201c565b620001847f8f4f2da22e8ac8f11e15f9fc141cddbb5deea8800186560abb6e68c5496619a982620002cf60201b60201c565b6200019583620002e560201b60201c565b50505062000c0f565b63ffffffff60e01b817bffffffffffffffffffffffffffffffffffffffffffffffffffffffff191614156200020a576040517f08c379a0000000000000000000000000000000000000000000000000000000008152600401620002019062000961565b60405180910390fd5b6001600080837bffffffffffffffffffffffffffffffffffffffffffffffffffffffff19167bffffffffffffffffffffffffffffffffffffffffffffffffffffffff1916815260200190815260200160002060006101000a81548160ff02191690831515021790555050565b80604051602001620002899190620008de565b604051602081830303815290604052600c9080519060200190620002af9291906200064f565b5050565b6000620002ca6200036760201b6200205e1760201c565b905090565b620002e182826200041a60201b60201c565b5050565b600d60009054906101000a900460ff161562000338576040517f08c379a00000000000000000000000000000000000000000000000000000000081526004016200032f9062000983565b60405180910390fd5b6200034981620004be60201b60201c565b6001600d60006101000a81548160ff02191690831515021790555050565b60003073ffffffffffffffffffffffffffffffffffffffff163373ffffffffffffffffffffffffffffffffffffffff1614156200041357600080368080601f016020809104026020016040519081016040528093929190818152602001838380828437600081840152601f19601f820116905080830192505050505050509050600080369050905073ffffffffffffffffffffffffffffffffffffffff81830151169250505062000417565b3390505b90565b6200044981600b60008581526020019081526020016000206000016200056d60201b6200210f1790919060201c565b15620004ba576200045f620002b360201b60201c565b73ffffffffffffffffffffffffffffffffffffffff168173ffffffffffffffffffffffffffffffffffffffff16837f2f8788117e7eff1d82e926ec794901d17c78024a50270940304540a733656f0d60405160405180910390a45b5050565b6040518060800160405280604f81526020016200655f604f91398051906020012081805190602001206040518060400160405280600181526020017f3100000000000000000000000000000000000000000000000000000000000000815250805190602001203062000535620005a560201b60201c565b60001b6040516020016200054e95949392919062000904565b60405160208183030381529060405280519060200120600e8190555050565b60006200059d836000018373ffffffffffffffffffffffffffffffffffffffff1660001b620005b260201b60201c565b905092915050565b6000804690508091505090565b6000620005c683836200062c60201b60201c565b6200062157826000018290806001815401808255809150506001900390600052602060002001600090919091909150558260000180549050836001016000848152602001908152602001600020819055506001905062000626565b600090505b92915050565b600080836001016000848152602001908152602001600020541415905092915050565b8280546200065d9062000a9f565b90600052602060002090601f016020900481019282620006815760008555620006cd565b82601f106200069c57805160ff1916838001178555620006cd565b82800160010185558215620006cd579182015b82811115620006cc578251825591602001919060010190620006af565b5b509050620006dc9190620006e0565b5090565b5b80821115620006fb576000816000905550600101620006e1565b5090565b6000620007166200071084620009ce565b620009a5565b9050828152602081018484840111156200072f57600080fd5b6200073c84828562000a69565b509392505050565b600081519050620007558162000bf5565b92915050565b600082601f8301126200076d57600080fd5b81516200077f848260208601620006ff565b91505092915050565b6000806000606084860312156200079e57600080fd5b600084015167ffffffffffffffff811115620007b957600080fd5b620007c7868287016200075b565b935050602084015167ffffffffffffffff811115620007e557600080fd5b620007f3868287016200075b565b9250506040620008068682870162000744565b9150509250925092565b6200081b8162000a2b565b82525050565b6200082c8162000a3f565b82525050565b60006200083f8262000a04565b6200084b818562000a20565b93506200085d81856020860162000a69565b80840191505092915050565b600062000878601a8362000a20565b9150620008858262000b7a565b601a82019050919050565b60006200089f601c8362000a0f565b9150620008ac8262000ba3565b602082019050919050565b6000620008c6600e8362000a0f565b9150620008d38262000bcc565b602082019050919050565b6000620008ec828462000832565b9150620008f98262000869565b915081905092915050565b600060a0820190506200091b600083018862000821565b6200092a602083018762000821565b62000939604083018662000821565b62000948606083018562000810565b62000957608083018462000821565b9695505050505050565b600060208201905081810360008301526200097c8162000890565b9050919050565b600060208201905081810360008301526200099e81620008b7565b9050919050565b6000620009b1620009c4565b9050620009bf828262000ad5565b919050565b6000604051905090565b600067ffffffffffffffff821115620009ec57620009eb62000b3a565b5b620009f78262000b69565b9050602081019050919050565b600081519050919050565b600082825260208201905092915050565b600081905092915050565b600062000a388262000a49565b9050919050565b6000819050919050565b600073ffffffffffffffffffffffffffffffffffffffff82169050919050565b60005b8381101562000a8957808201518184015260208101905062000a6c565b8381111562000a99576000848401525b50505050565b6000600282049050600182168062000ab857607f821691505b6020821081141562000acf5762000ace62000b0b565b5b50919050565b62000ae08262000b69565b810181811067ffffffffffffffff8211171562000b025762000b0162000b3a565b5b80604052505050565b7f4e487b7100000000000000000000000000000000000000000000000000000000600052602260045260246000fd5b7f4e487b7100000000000000000000000000000000000000000000000000000000600052604160045260246000fd5b6000601f19601f8301169050919050565b7f3a20494e53554646494349454e545f5045524d495353494f4e53000000000000600082015250565b7f4552433136353a20696e76616c696420696e7465726661636520696400000000600082015250565b7f616c726561647920696e69746564000000000000000000000000000000000000600082015250565b62000c008162000a2b565b811462000c0c57600080fd5b50565b6159408062000c1f6000396000f3fe60806040526004361061023b5760003560e01c80634f6ccce71161012e578063a22cb465116100ab578063ca15c8731161006f578063ca15c873146108fa578063cf2c52cb14610937578063d0def52114610960578063d547741f1461099d578063e985e9c5146109c65761023b565b8063a22cb46514610817578063a3b0b5a314610840578063a5e584dc1461086b578063b88d4fde14610894578063c87b56dd146108bd5761023b565b806391d14854116100f257806391d14854146107305780639559c0bd1461076d57806395d89b41146107985780639c8d4156146107c3578063a217fddf146107ec5761023b565b80634f6ccce7146106115780636352211e1461064e5780636c0360eb1461068b57806370a08231146106b65780639010d07c146106f35761023b565b806323b872dd116101bc5780632f745c59116101805780632f745c591461052e5780633408e4701461056b57806336568abe1461059657806340c10f19146105bf57806342842e0e146105e85761023b565b806323b872dd14610439578063248a9ca3146104625780632d0335ab1461049f5780632e1a7d4d146104dc5780632f2ff15d146105055761023b565b80630c53c51c116102035780630c53c51c1461034b5780630f7e59701461037b5780631653c39a146103a657806318160ddd146103e357806320379ee51461040e5761023b565b806301ffc9a71461024057806306fdde031461027d57806307a974fc146102a8578063081812fc146102e5578063095ea7b314610322575b600080fd5b34801561024c57600080fd5b5061026760048036038101906102629190613e9c565b610a03565b604051610274919061475c565b60405180910390f35b34801561028957600080fd5b50610292610a6a565b60405161029f919061483e565b60405180910390f35b3480156102b457600080fd5b506102cf60048036038101906102ca9190613f2f565b610afc565b6040516102dc919061475c565b60405180910390f35b3480156102f157600080fd5b5061030c60048036038101906103079190613f2f565b610b1c565b6040516103199190614693565b60405180910390f35b34801561032e57600080fd5b5061034960048036038101906103449190613d39565b610ba1565b005b61036560048036038101906103609190613c56565b610cb9565b604051610372919061481c565b60405180910390f35b34801561038757600080fd5b50610390610f2b565b60405161039d919061483e565b60405180910390f35b3480156103b257600080fd5b506103cd60048036038101906103c89190613f2f565b610f64565b6040516103da919061481c565b60405180910390f35b3480156103ef57600080fd5b506103f8610f95565b6040516104059190614ba2565b60405180910390f35b34801561041a57600080fd5b50610423610fa6565b6040516104309190614777565b60405180910390f35b34801561044557600080fd5b50610460600480360381019061045b9190613af8565b610fb0565b005b34801561046e57600080fd5b5061048960048036038101906104849190613dfb565b611010565b6040516104969190614777565b60405180910390f35b3480156104ab57600080fd5b506104c660048036038101906104c19190613a93565b611030565b6040516104d39190614ba2565b60405180910390f35b3480156104e857600080fd5b5061050360048036038101906104fe9190613f2f565b611079565b005b34801561051157600080fd5b5061052c60048036038101906105279190613e24565b61112e565b005b34801561053a57600080fd5b5061055560048036038101906105509190613d39565b6111a2565b6040516105629190614ba2565b60405180910390f35b34801561057757600080fd5b506105806111fd565b60405161058d9190614ba2565b60405180910390f35b3480156105a257600080fd5b506105bd60048036038101906105b89190613e24565b61120a565b005b3480156105cb57600080fd5b506105e660048036038101906105e19190613d39565b61128d565b005b3480156105f457600080fd5b5061060f600480360381019061060a9190613af8565b611356565b005b34801561061d57600080fd5b5061063860048036038101906106339190613f2f565b611376565b6040516106459190614ba2565b60405180910390f35b34801561065a57600080fd5b5061067560048036038101906106709190613f2f565b611399565b6040516106829190614693565b60405180910390f35b34801561069757600080fd5b506106a06113d0565b6040516106ad919061483e565b60405180910390f35b3480156106c257600080fd5b506106dd60048036038101906106d89190613a93565b611462565b6040516106ea9190614ba2565b60405180910390f35b3480156106ff57600080fd5b5061071a60048036038101906107159190613e60565b611521565b6040516107279190614693565b60405180910390f35b34801561073c57600080fd5b5061075760048036038101906107529190613e24565b611553565b604051610764919061475c565b60405180910390f35b34801561077957600080fd5b50610782611585565b60405161078f9190614ba2565b60405180910390f35b3480156107a457600080fd5b506107ad61158a565b6040516107ba919061483e565b60405180910390f35b3480156107cf57600080fd5b506107ea60048036038101906107e59190613d75565b61161c565b005b3480156107f857600080fd5b506108016117fd565b60405161080e9190614777565b60405180910390f35b34801561082357600080fd5b5061083e60048036038101906108399190613bc2565b611804565b005b34801561084c57600080fd5b50610855611985565b6040516108629190614777565b60405180910390f35b34801561087757600080fd5b50610892600480360381019061088d9190613f2f565b6119a9565b005b3480156108a057600080fd5b506108bb60048036038101906108b69190613b47565b611b5a565b005b3480156108c957600080fd5b506108e460048036038101906108df9190613f2f565b611bbc565b6040516108f1919061483e565b60405180910390f35b34801561090657600080fd5b50610921600480360381019061091c9190613dfb565b611d2f565b60405161092e9190614ba2565b60405180910390f35b34801561094357600080fd5b5061095e60048036038101906109599190613bfe565b611d56565b005b34801561096c57600080fd5b5061098760048036038101906109829190613ce5565b611f1e565b6040516109949190614ba2565b60405180910390f35b3480156109a957600080fd5b506109c460048036038101906109bf9190613e24565b611f56565b005b3480156109d257600080fd5b506109ed60048036038101906109e89190613abc565b611fca565b6040516109fa919061475c565b60405180910390f35b6000806000837bffffffffffffffffffffffffffffffffffffffffffffffffffffffff19167bffffffffffffffffffffffffffffffffffffffffffffffffffffffff1916815260200190815260200160002060009054906101000a900460ff169050919050565b606060018054610a7990614ea8565b80601f0160208091040260200160405190810160405280929190818152602001828054610aa590614ea8565b8015610af25780601f10610ac757610100808354040283529160200191610af2565b820191906000526020600020905b815481529060010190602001808311610ad557829003601f168201915b5050505050905090565b60126020528060005260406000206000915054906101000a900460ff1681565b6000610b278261213f565b610b66576040517f08c379a0000000000000000000000000000000000000000000000000000000008152600401610b5d90614a82565b60405180910390fd5b6007600083815260200190815260200160002060009054906101000a900473ffffffffffffffffffffffffffffffffffffffff169050919050565b6000610bac82611399565b90508073ffffffffffffffffffffffffffffffffffffffff168373ffffffffffffffffffffffffffffffffffffffff161415610c1d576040517f08c379a0000000000000000000000000000000000000000000000000000000008152600401610c1490614b22565b60405180910390fd5b8073ffffffffffffffffffffffffffffffffffffffff16610c3c61215c565b73ffffffffffffffffffffffffffffffffffffffff161480610c6b5750610c6a81610c6561215c565b611fca565b5b610caa576040517f08c379a0000000000000000000000000000000000000000000000000000000008152600401610ca1906149e2565b60405180910390fd5b610cb4838361216b565b505050565b606060006040518060600160405280600f60008a73ffffffffffffffffffffffffffffffffffffffff1673ffffffffffffffffffffffffffffffffffffffff1681526020019081526020016000205481526020018873ffffffffffffffffffffffffffffffffffffffff168152602001878152509050610d3c8782878787612224565b610d7b576040517f08c379a0000000000000000000000000000000000000000000000000000000008152600401610d7290614ae2565b60405180910390fd5b610dce6001600f60008a73ffffffffffffffffffffffffffffffffffffffff1673ffffffffffffffffffffffffffffffffffffffff1681526020019081526020016000205461232d90919063ffffffff16565b600f60008973ffffffffffffffffffffffffffffffffffffffff1673ffffffffffffffffffffffffffffffffffffffff168152602001908152602001600020819055507f5845892132946850460bff5a0083f71031bc5bf9aadcd40f1de79423eac9b10b873388604051610e44939291906146fa565b60405180910390a16000803073ffffffffffffffffffffffffffffffffffffffff16888a604051602001610e799291906145ea565b604051602081830303815290604052604051610e9591906145d3565b6000604051808303816000865af19150503d8060008114610ed2576040519150601f19603f3d011682016040523d82523d6000602084013e610ed7565b606091505b509150915081610f1c576040517f08c379a0000000000000000000000000000000000000000000000000000000008152600401610f13906148e2565b60405180910390fd5b80935050505095945050505050565b6040518060400160405280600181526020017f310000000000000000000000000000000000000000000000000000000000000081525081565b6060610f6f82611bbc565b604051602001610f7f919061483e565b6040516020818303038152906040529050919050565b6000610fa1600461238b565b905090565b6000600e54905090565b610fc1610fbb61215c565b826123a0565b611000576040517f08c379a0000000000000000000000000000000000000000000000000000000008152600401610ff790614b42565b60405180910390fd5b61100b83838361247e565b505050565b6000600b6000838152602001908152602001600020600201549050919050565b6000600f60008373ffffffffffffffffffffffffffffffffffffffff1673ffffffffffffffffffffffffffffffffffffffff168152602001908152602001600020549050919050565b61108281611399565b73ffffffffffffffffffffffffffffffffffffffff166110a061215c565b73ffffffffffffffffffffffffffffffffffffffff16146110f6576040517f08c379a00000000000000000000000000000000000000000000000000000000081526004016110ed90614a02565b60405180910390fd5b60016012600083815260200190815260200160002060006101000a81548160ff02191690831515021790555061112b81612695565b50565b611155600b60008481526020019081526020016000206002015461115061215c565b611553565b611194576040517f08c379a000000000000000000000000000000000000000000000000000000000815260040161118b90614882565b60405180910390fd5b61119e82826127c7565b5050565b60006111f582600360008673ffffffffffffffffffffffffffffffffffffffff1673ffffffffffffffffffffffffffffffffffffffff16815260200190815260200160002061285b90919063ffffffff16565b905092915050565b6000804690508091505090565b61121261215c565b73ffffffffffffffffffffffffffffffffffffffff168173ffffffffffffffffffffffffffffffffffffffff161461127f576040517f08c379a000000000000000000000000000000000000000000000000000000000815260040161127690614b82565b60405180910390fd5b6112898282612875565b5050565b6000801b6112a28161129d61215c565b611553565b600c906112e5576040517f08c379a00000000000000000000000000000000000000000000000000000000081526004016112dc9190614860565b60405180910390fd5b506012600083815260200190815260200160002060009054906101000a900460ff1615611347576040517f08c379a000000000000000000000000000000000000000000000000000000000815260040161133e906148c2565b60405180910390fd5b6113518383612909565b505050565b61137183838360405180602001604052806000815250611b5a565b505050565b60008061138d836004612a9790919063ffffffff16565b50905080915050919050565b60006113c9826040518060600160405280602981526020016158e2602991396004612ac39092919063ffffffff16565b9050919050565b6060600a80546113df90614ea8565b80601f016020809104026020016040519081016040528092919081815260200182805461140b90614ea8565b80156114585780601f1061142d57610100808354040283529160200191611458565b820191906000526020600020905b81548152906001019060200180831161143b57829003601f168201915b5050505050905090565b60008073ffffffffffffffffffffffffffffffffffffffff168273ffffffffffffffffffffffffffffffffffffffff1614156114d3576040517f08c379a00000000000000000000000000000000000000000000000000000000081526004016114ca90614a22565b60405180910390fd5b61151a600360008473ffffffffffffffffffffffffffffffffffffffff1673ffffffffffffffffffffffffffffffffffffffff168152602001908152602001600020612ae2565b9050919050565b600061154b82600b6000868152602001908152602001600020600001612af790919063ffffffff16565b905092915050565b600061157d82600b6000868152602001908152602001600020600001612b1190919063ffffffff16565b905092915050565b601481565b60606002805461159990614ea8565b80601f01602080910402602001604051908101604052809291908181526020018280546115c590614ea8565b80156116125780601f106115e757610100808354040283529160200191611612565b820191906000526020600020905b8154815290600101906020018083116115f557829003601f168201915b5050505050905090565b60008282905090506014811115611668576040517f08c379a000000000000000000000000000000000000000000000000000000000815260040161165f90614a42565b60405180910390fd5b60005b818110156117a05760008484838181106116ae577f4e487b7100000000000000000000000000000000000000000000000000000000600052603260045260246000fd5b9050602002013590506116c081611399565b73ffffffffffffffffffffffffffffffffffffffff166116de61215c565b73ffffffffffffffffffffffffffffffffffffffff161481604051602001611706919061466d565b60405160208183030381529060405290611756576040517f08c379a000000000000000000000000000000000000000000000000000000000815260040161174d919061483e565b60405180910390fd5b5060016012600083815260200190815260200160002060006101000a81548160ff02191690831515021790555061178c81612695565b50808061179890614f0b565b91505061166b565b506117a961215c565b73ffffffffffffffffffffffffffffffffffffffff167ff871896b17e9cb7a64941c62c188a4f5c621b86800e3d15452ece01ce56073df84846040516117f0929190614738565b60405180910390a2505050565b6000801b81565b61180c61215c565b73ffffffffffffffffffffffffffffffffffffffff168273ffffffffffffffffffffffffffffffffffffffff16141561187a576040517f08c379a000000000000000000000000000000000000000000000000000000000815260040161187190614962565b60405180910390fd5b806008600061188761215c565b73ffffffffffffffffffffffffffffffffffffffff1673ffffffffffffffffffffffffffffffffffffffff16815260200190815260200160002060008473ffffffffffffffffffffffffffffffffffffffff1673ffffffffffffffffffffffffffffffffffffffff16815260200190815260200160002060006101000a81548160ff0219169083151502179055508173ffffffffffffffffffffffffffffffffffffffff1661193461215c565b73ffffffffffffffffffffffffffffffffffffffff167f17307eab39ab6107e8899845ad3d59bd9653f200f220920489ca2b5937696c3183604051611979919061475c565b60405180910390a35050565b7f8f4f2da22e8ac8f11e15f9fc141cddbb5deea8800186560abb6e68c5496619a981565b6119b281611399565b73ffffffffffffffffffffffffffffffffffffffff166119d061215c565b73ffffffffffffffffffffffffffffffffffffffff1614611a26576040517f08c379a0000000000000000000000000000000000000000000000000000000008152600401611a1d90614a02565b60405180910390fd5b60016012600083815260200190815260200160002060006101000a81548160ff02191690831515021790555080600073ffffffffffffffffffffffffffffffffffffffff16611a7483611399565b73ffffffffffffffffffffffffffffffffffffffff167ff94915c6d1fd521cee85359239227480c7e8776d7caf1fc3bacad5c269b66a143073ffffffffffffffffffffffffffffffffffffffff16631653c39a866040518263ffffffff1660e01b8152600401611ae49190614ba2565b60006040518083038186803b158015611afc57600080fd5b505afa158015611b10573d6000803e3d6000fd5b505050506040513d6000823e3d601f19601f82011682018060405250810190611b399190613eee565b604051611b46919061481c565b60405180910390a4611b5781612695565b50565b611b6b611b6561215c565b836123a0565b611baa576040517f08c379a0000000000000000000000000000000000000000000000000000000008152600401611ba190614b42565b60405180910390fd5b611bb684848484612b41565b50505050565b6060611bc78261213f565b611c06576040517f08c379a0000000000000000000000000000000000000000000000000000000008152600401611bfd90614b02565b60405180910390fd5b6000600960008481526020019081526020016000208054611c2690614ea8565b80601f0160208091040260200160405190810160405280929190818152602001828054611c5290614ea8565b8015611c9f5780601f10611c7457610100808354040283529160200191611c9f565b820191906000526020600020905b815481529060010190602001808311611c8257829003601f168201915b505050505090506000600a8054611cb590614ea8565b90501415611cc65780915050611d2a565b600081511115611cfb57600a81604051602001611ce4929190614612565b604051602081830303815290604052915050611d2a565b600a611d0684612b9d565b604051602001611d17929190614612565b6040516020818303038152906040529150505b919050565b6000611d4f600b6000848152602001908152602001600020600001612d5c565b9050919050565b7f8f4f2da22e8ac8f11e15f9fc141cddbb5deea8800186560abb6e68c5496619a9611d8881611d8361215c565b611553565b600c90611dcb576040517f08c379a0000000000000000000000000000000000000000000000000000000008152600401611dc29190614860565b60405180910390fd5b506020838390501415611e275760008383810190611de99190613f2f565b905060006012600083815260200190815260200160002060006101000a81548160ff021916908315150217905550611e218582612909565b50611f18565b60008383810190611e389190613dba565b905060008151905060005b81811015611f1457600060126000858481518110611e8a577f4e487b7100000000000000000000000000000000000000000000000000000000600052603260045260246000fd5b6020026020010151815260200190815260200160002060006101000a81548160ff021916908315150217905550611f0187848381518110611ef4577f4e487b7100000000000000000000000000000000000000000000000000000000600052603260045260246000fd5b6020026020010151612909565b8080611f0c90614f0b565b915050611e43565b5050505b50505050565b6000611f2a6010612d71565b6000611f366010612d87565b9050611f428482612909565b611f4c8184612d95565b8091505092915050565b611f7d600b600084815260200190815260200160002060020154611f7861215c565b611553565b611fbc576040517f08c379a0000000000000000000000000000000000000000000000000000000008152600401611fb3906149a2565b60405180910390fd5b611fc68282612875565b5050565b6000600860008473ffffffffffffffffffffffffffffffffffffffff1673ffffffffffffffffffffffffffffffffffffffff16815260200190815260200160002060008373ffffffffffffffffffffffffffffffffffffffff1673ffffffffffffffffffffffffffffffffffffffff16815260200190815260200160002060009054906101000a900460ff16905092915050565b60003073ffffffffffffffffffffffffffffffffffffffff163373ffffffffffffffffffffffffffffffffffffffff16141561210857600080368080601f016020809104026020016040519081016040528093929190818152602001838380828437600081840152601f19601f820116905080830192505050505050509050600080369050905073ffffffffffffffffffffffffffffffffffffffff81830151169250505061210c565b3390505b90565b6000612137836000018373ffffffffffffffffffffffffffffffffffffffff1660001b612e09565b905092915050565b6000612155826004612e7990919063ffffffff16565b9050919050565b600061216661205e565b905090565b816007600083815260200190815260200160002060006101000a81548173ffffffffffffffffffffffffffffffffffffffff021916908373ffffffffffffffffffffffffffffffffffffffff160217905550808273ffffffffffffffffffffffffffffffffffffffff166121de83611399565b73ffffffffffffffffffffffffffffffffffffffff167f8c5be1e5ebec7d5bd14f71427d1e84f3dd0314c0f7b2291e5b200ac8c7c3b92560405160405180910390a45050565b60008073ffffffffffffffffffffffffffffffffffffffff168673ffffffffffffffffffffffffffffffffffffffff161415612295576040517f08c379a000000000000000000000000000000000000000000000000000000000815260040161228c906149c2565b60405180910390fd5b60016122a86122a387612e93565b612efb565b838686604051600081526020016040526040516122c894939291906147d7565b6020604051602081039080840390855afa1580156122ea573d6000803e3d6000fd5b5050506020604051035173ffffffffffffffffffffffffffffffffffffffff168673ffffffffffffffffffffffffffffffffffffffff1614905095945050505050565b600080828461233c9190614ce4565b905083811015612381576040517f08c379a000000000000000000000000000000000000000000000000000000000815260040161237890614922565b60405180910390fd5b8091505092915050565b600061239982600001612f34565b9050919050565b60006123ab8261213f565b6123ea576040517f08c379a00000000000000000000000000000000000000000000000000000000081526004016123e190614982565b60405180910390fd5b60006123f583611399565b90508073ffffffffffffffffffffffffffffffffffffffff168473ffffffffffffffffffffffffffffffffffffffff16148061246457508373ffffffffffffffffffffffffffffffffffffffff1661244c84610b1c565b73ffffffffffffffffffffffffffffffffffffffff16145b8061247557506124748185611fca565b5b91505092915050565b8273ffffffffffffffffffffffffffffffffffffffff1661249e82611399565b73ffffffffffffffffffffffffffffffffffffffff16146124f4576040517f08c379a00000000000000000000000000000000000000000000000000000000081526004016124eb90614ac2565b60405180910390fd5b600073ffffffffffffffffffffffffffffffffffffffff168273ffffffffffffffffffffffffffffffffffffffff161415612564576040517f08c379a000000000000000000000000000000000000000000000000000000000815260040161255b90614942565b60405180910390fd5b61256f838383612f49565b61257a60008261216b565b6125cb81600360008673ffffffffffffffffffffffffffffffffffffffff1673ffffffffffffffffffffffffffffffffffffffff168152602001908152602001600020612f4e90919063ffffffff16565b5061261d81600360008573ffffffffffffffffffffffffffffffffffffffff1673ffffffffffffffffffffffffffffffffffffffff168152602001908152602001600020612f6890919063ffffffff16565b5061263481836004612f829092919063ffffffff16565b50808273ffffffffffffffffffffffffffffffffffffffff168473ffffffffffffffffffffffffffffffffffffffff167fddf252ad1be2c89b69c2b068fc378daa952ba7f163c4a11628f55a4df523b3ef60405160405180910390a4505050565b60006126a082611399565b90506126ae81600084612f49565b6126b960008361216b565b60006009600084815260200190815260200160002080546126d990614ea8565b905014612700576009600083815260200190815260200160002060006126ff91906136bb565b5b61275182600360008473ffffffffffffffffffffffffffffffffffffffff1673ffffffffffffffffffffffffffffffffffffffff168152602001908152602001600020612f4e90919063ffffffff16565b50612766826004612fb790919063ffffffff16565b5081600073ffffffffffffffffffffffffffffffffffffffff168273ffffffffffffffffffffffffffffffffffffffff167fddf252ad1be2c89b69c2b068fc378daa952ba7f163c4a11628f55a4df523b3ef60405160405180910390a45050565b6127ef81600b600085815260200190815260200160002060000161210f90919063ffffffff16565b15612857576127fc61215c565b73ffffffffffffffffffffffffffffffffffffffff168173ffffffffffffffffffffffffffffffffffffffff16837f2f8788117e7eff1d82e926ec794901d17c78024a50270940304540a733656f0d60405160405180910390a45b5050565b600061286a8360000183612fd1565b60001c905092915050565b61289d81600b600085815260200190815260200160002060000161302290919063ffffffff16565b15612905576128aa61215c565b73ffffffffffffffffffffffffffffffffffffffff168173ffffffffffffffffffffffffffffffffffffffff16837ff6391f5c32d9c69d2a47ea670b442974b53935d1edc7fd64eb21e047a839171b60405160405180910390a45b5050565b600073ffffffffffffffffffffffffffffffffffffffff168273ffffffffffffffffffffffffffffffffffffffff161415612979576040517f08c379a000000000000000000000000000000000000000000000000000000000815260040161297090614a62565b60405180910390fd5b6129828161213f565b156129c2576040517f08c379a00000000000000000000000000000000000000000000000000000000081526004016129b990614902565b60405180910390fd5b6129ce60008383612f49565b612a1f81600360008573ffffffffffffffffffffffffffffffffffffffff1673ffffffffffffffffffffffffffffffffffffffff168152602001908152602001600020612f6890919063ffffffff16565b50612a3681836004612f829092919063ffffffff16565b50808273ffffffffffffffffffffffffffffffffffffffff16600073ffffffffffffffffffffffffffffffffffffffff167fddf252ad1be2c89b69c2b068fc378daa952ba7f163c4a11628f55a4df523b3ef60405160405180910390a45050565b600080600080612aaa8660000186613052565b915091508160001c8160001c9350935050509250929050565b6000612ad6846000018460001b84613092565b60001c90509392505050565b6000612af082600001613113565b9050919050565b6000612b068360000183612fd1565b60001c905092915050565b6000612b39836000018373ffffffffffffffffffffffffffffffffffffffff1660001b613124565b905092915050565b612b4c84848461247e565b612b5884848484613147565b612b97576040517f08c379a0000000000000000000000000000000000000000000000000000000008152600401612b8e906148a2565b60405180910390fd5b50505050565b60606000821415612be5576040518060400160405280600181526020017f30000000000000000000000000000000000000000000000000000000000000008152509050612d57565b600082905060005b60008214612c17578080612c0090614f0b565b915050600a82612c109190614d3a565b9150612bed565b60008167ffffffffffffffff811115612c59577f4e487b7100000000000000000000000000000000000000000000000000000000600052604160045260246000fd5b6040519080825280601f01601f191660200182016040528015612c8b5781602001600182028036833780820191505090505b5090506000600183612c9d9190614d6b565b90508593505b60008414612d4f57600a84612cb89190614f8c565b6030612cc49190614ce4565b60f81b828280612cd390614e7e565b935081518110612d0c577f4e487b7100000000000000000000000000000000000000000000000000000000600052603260045260246000fd5b60200101907effffffffffffffffffffffffffffffffffffffffffffffffffffffffffffff1916908160001a905350600a84612d489190614d3a565b9350612ca3565b819450505050505b919050565b6000612d6a82600001613113565b9050919050565b6001816000016000828254019250508190555050565b600081600001549050919050565b612d9e8261213f565b612ddd576040517f08c379a0000000000000000000000000000000000000000000000000000000008152600401612dd490614aa2565b60405180910390fd5b80600960008481526020019081526020016000209080519060200190612e049291906136fb565b505050565b6000612e158383613124565b612e6e578260000182908060018154018082558091505060019003906000526020600020016000909190919091505582600001805490508360010160008481526020019081526020016000208190555060019050612e73565b600090505b92915050565b6000612e8b836000018360001b6132ab565b905092915050565b600060405180608001604052806043815260200161589f604391398051906020012082600001518360200151846040015180519060200120604051602001612ede9493929190614792565b604051602081830303815290604052805190602001209050919050565b6000612f05610fa6565b82604051602001612f17929190614636565b604051602081830303815290604052805190602001209050919050565b6000612f42826000016132cb565b9050919050565b505050565b6000612f60836000018360001b6132e0565b905092915050565b6000612f7a836000018360001b612e09565b905092915050565b6000612fae846000018460001b8473ffffffffffffffffffffffffffffffffffffffff1660001b613466565b90509392505050565b6000612fc9836000018360001b6134a1565b905092915050565b600082600001828154811061300f577f4e487b7100000000000000000000000000000000000000000000000000000000600052603260045260246000fd5b9060005260206000200154905092915050565b600061304a836000018373ffffffffffffffffffffffffffffffffffffffff1660001b6132e0565b905092915050565b600080600061306d84866000016134da90919063ffffffff16565b9050808560020160008381526020019081526020016000205492509250509250929050565b6000808460020160008581526020019081526020016000205490506000801b811415806130c557506130c485856132ab565b5b8390613107576040517f08c379a00000000000000000000000000000000000000000000000000000000081526004016130fe919061483e565b60405180910390fd5b50809150509392505050565b600081600001805490509050919050565b600080836001016000848152602001908152602001600020541415905092915050565b60006131688473ffffffffffffffffffffffffffffffffffffffff166134f1565b61317557600190506132a3565b600061323c63150b7a0260e01b61318a61215c565b8887876040516024016131a094939291906146ae565b604051602081830303815290604052907bffffffffffffffffffffffffffffffffffffffffffffffffffffffff19166020820180517bffffffffffffffffffffffffffffffffffffffffffffffffffffffff838183161783525050505060405180606001604052806032815260200161586d603291398773ffffffffffffffffffffffffffffffffffffffff1661353c9092919063ffffffff16565b90506000818060200190518101906132549190613ec5565b905063150b7a0260e01b7bffffffffffffffffffffffffffffffffffffffffffffffffffffffff1916817bffffffffffffffffffffffffffffffffffffffffffffffffffffffff191614925050505b949350505050565b60006132c3828460000161355490919063ffffffff16565b905092915050565b60006132d982600001613113565b9050919050565b6000808360010160008481526020019081526020016000205490506000811461345a5760006001826133129190614d6b565b905060006001866000018054905061332a9190614d6b565b90508181146133e5576000866000018281548110613371577f4e487b7100000000000000000000000000000000000000000000000000000000600052603260045260246000fd5b90600052602060002001549050808760000184815481106133bb577f4e487b7100000000000000000000000000000000000000000000000000000000600052603260045260246000fd5b90600052602060002001819055508387600101600083815260200190815260200160002081905550505b8560000180548061341f577f4e487b7100000000000000000000000000000000000000000000000000000000600052603160045260246000fd5b600190038181906000526020600020016000905590558560010160008681526020019081526020016000206000905560019350505050613460565b60009150505b92915050565b60008184600201600085815260200190815260200160002081905550613498838560000161356b90919063ffffffff16565b90509392505050565b6000826002016000838152602001908152602001600020600090556134d2828460000161358290919063ffffffff16565b905092915050565b60006134e98360000183612fd1565b905092915050565b60008060007fc5d2460186f7233c927e7db2dcc703c0e500b653ca82273b7bfad8045d85a47060001b9050833f915080821415801561353357506000801b8214155b92505050919050565b606061354b8484600085613599565b90509392505050565b60006135638360000183613124565b905092915050565b600061357a8360000183612e09565b905092915050565b600061359183600001836132e0565b905092915050565b60606135a4856134f1565b6135e3576040517f08c379a00000000000000000000000000000000000000000000000000000000081526004016135da90614b62565b60405180910390fd5b6000808673ffffffffffffffffffffffffffffffffffffffff16858760405161360c91906145d3565b60006040518083038185875af1925050503d8060008114613649576040519150601f19603f3d011682016040523d82523d6000602084013e61364e565b606091505b509150915081156136635780925050506136b3565b6000815111156136765780518082602001fd5b836040517f08c379a00000000000000000000000000000000000000000000000000000000081526004016136aa919061483e565b60405180910390fd5b949350505050565b5080546136c790614ea8565b6000825580601f106136d957506136f8565b601f0160209004906000526020600020908101906136f79190613781565b5b50565b82805461370790614ea8565b90600052602060002090601f0160209004810192826137295760008555613770565b82601f1061374257805160ff1916838001178555613770565b82800160010185558215613770579182015b8281111561376f578251825591602001919060010190613754565b5b50905061377d9190613781565b5090565b5b8082111561379a576000816000905550600101613782565b5090565b60006137b16137ac84614be2565b614bbd565b905080838252602082019050828560208602820111156137d057600080fd5b60005b8581101561380057816137e68882613a69565b8452602084019350602083019250506001810190506137d3565b5050509392505050565b600061381d61381884614c0e565b614bbd565b90508281526020810184848401111561383557600080fd5b613840848285614e3c565b509392505050565b600061385b61385684614c0e565b614bbd565b90508281526020810184848401111561387357600080fd5b61387e848285614e4b565b509392505050565b600061389961389484614c3f565b614bbd565b9050828152602081018484840111156138b157600080fd5b6138bc848285614e3c565b509392505050565b6000813590506138d3816157e2565b92915050565b60008083601f8401126138eb57600080fd5b8235905067ffffffffffffffff81111561390457600080fd5b60208301915083602082028301111561391c57600080fd5b9250929050565b600082601f83011261393457600080fd5b813561394484826020860161379e565b91505092915050565b60008135905061395c816157f9565b92915050565b60008135905061397181615810565b92915050565b60008135905061398681615827565b92915050565b60008151905061399b81615827565b92915050565b60008083601f8401126139b357600080fd5b8235905067ffffffffffffffff8111156139cc57600080fd5b6020830191508360018202830111156139e457600080fd5b9250929050565b600082601f8301126139fc57600080fd5b8135613a0c84826020860161380a565b91505092915050565b600082601f830112613a2657600080fd5b8151613a36848260208601613848565b91505092915050565b600082601f830112613a5057600080fd5b8135613a60848260208601613886565b91505092915050565b600081359050613a788161583e565b92915050565b600081359050613a8d81615855565b92915050565b600060208284031215613aa557600080fd5b6000613ab3848285016138c4565b91505092915050565b60008060408385031215613acf57600080fd5b6000613add858286016138c4565b9250506020613aee858286016138c4565b9150509250929050565b600080600060608486031215613b0d57600080fd5b6000613b1b868287016138c4565b9350506020613b2c868287016138c4565b9250506040613b3d86828701613a69565b9150509250925092565b60008060008060808587031215613b5d57600080fd5b6000613b6b878288016138c4565b9450506020613b7c878288016138c4565b9350506040613b8d87828801613a69565b925050606085013567ffffffffffffffff811115613baa57600080fd5b613bb6878288016139eb565b91505092959194509250565b60008060408385031215613bd557600080fd5b6000613be3858286016138c4565b9250506020613bf48582860161394d565b9150509250929050565b600080600060408486031215613c1357600080fd5b6000613c21868287016138c4565b935050602084013567ffffffffffffffff811115613c3e57600080fd5b613c4a868287016139a1565b92509250509250925092565b600080600080600060a08688031215613c6e57600080fd5b6000613c7c888289016138c4565b955050602086013567ffffffffffffffff811115613c9957600080fd5b613ca5888289016139eb565b9450506040613cb688828901613962565b9350506060613cc788828901613962565b9250506080613cd888828901613a7e565b9150509295509295909350565b60008060408385031215613cf857600080fd5b6000613d06858286016138c4565b925050602083013567ffffffffffffffff811115613d2357600080fd5b613d2f85828601613a3f565b9150509250929050565b60008060408385031215613d4c57600080fd5b6000613d5a858286016138c4565b9250506020613d6b85828601613a69565b9150509250929050565b60008060208385031215613d8857600080fd5b600083013567ffffffffffffffff811115613da257600080fd5b613dae858286016138d9565b92509250509250929050565b600060208284031215613dcc57600080fd5b600082013567ffffffffffffffff811115613de657600080fd5b613df284828501613923565b91505092915050565b600060208284031215613e0d57600080fd5b6000613e1b84828501613962565b91505092915050565b60008060408385031215613e3757600080fd5b6000613e4585828601613962565b9250506020613e56858286016138c4565b9150509250929050565b60008060408385031215613e7357600080fd5b6000613e8185828601613962565b9250506020613e9285828601613a69565b9150509250929050565b600060208284031215613eae57600080fd5b6000613ebc84828501613977565b91505092915050565b600060208284031215613ed757600080fd5b6000613ee58482850161398c565b91505092915050565b600060208284031215613f0057600080fd5b600082015167ffffffffffffffff811115613f1a57600080fd5b613f2684828501613a15565b91505092915050565b600060208284031215613f4157600080fd5b6000613f4f84828501613a69565b91505092915050565b613f6181614db1565b82525050565b613f7081614d9f565b82525050565b613f87613f8282614d9f565b614f54565b82525050565b6000613f998385614c9b565b93507f07ffffffffffffffffffffffffffffffffffffffffffffffffffffffffffffff831115613fc857600080fd5b602083029250613fd9838584614e3c565b82840190509392505050565b613fee81614dc3565b82525050565b613ffd81614dcf565b82525050565b61401461400f82614dcf565b614f66565b82525050565b600061402582614c85565b61402f8185614cac565b935061403f818560208601614e4b565b61404881615079565b840191505092915050565b600061405e82614c85565b6140688185614cbd565b9350614078818560208601614e4b565b80840191505092915050565b600061408f82614c90565b6140998185614cc8565b93506140a9818560208601614e4b565b6140b281615079565b840191505092915050565b60006140c882614c90565b6140d28185614cd9565b93506140e2818560208601614e4b565b80840191505092915050565b600081546140fb81614ea8565b6141058186614cc8565b94506001821660008114614120576001811461413257614165565b60ff1983168652602086019350614165565b61413b85614c70565b60005b8381101561415d5781548189015260018201915060208101905061413e565b808801955050505b50505092915050565b6000815461417b81614ea8565b6141858186614cd9565b945060018216600081146141a057600181146141b1576141e4565b60ff198316865281860193506141e4565b6141ba85614c70565b60005b838110156141dc578154818901526001820191506020810190506141bd565b838801955050505b50505092915050565b60006141fa602f83614cc8565b915061420582615097565b604082019050919050565b600061421d603283614cc8565b9150614228826150e6565b604082019050919050565b6000614240602f83614cc8565b915061424b82615135565b604082019050919050565b6000614263601c83614cc8565b915061426e82615184565b602082019050919050565b6000614286601c83614cc8565b9150614291826151ad565b602082019050919050565b60006142a9600283614cd9565b91506142b4826151d6565b600282019050919050565b60006142cc601b83614cc8565b91506142d7826151ff565b602082019050919050565b60006142ef602983614cd9565b91506142fa82615228565b602982019050919050565b6000614312602483614cc8565b915061431d82615277565b604082019050919050565b6000614335601983614cc8565b9150614340826152c6565b602082019050919050565b6000614358602c83614cc8565b9150614363826152ef565b604082019050919050565b600061437b603083614cc8565b91506143868261533e565b604082019050919050565b600061439e602583614cc8565b91506143a98261538d565b604082019050919050565b60006143c1603883614cc8565b91506143cc826153dc565b604082019050919050565b60006143e4602883614cc8565b91506143ef8261542b565b604082019050919050565b6000614407602a83614cc8565b91506144128261547a565b604082019050919050565b600061442a602883614cc8565b9150614435826154c9565b604082019050919050565b600061444d602083614cc8565b915061445882615518565b602082019050919050565b6000614470602c83614cc8565b915061447b82615541565b604082019050919050565b6000614493602c83614cc8565b915061449e82615590565b604082019050919050565b60006144b6602983614cc8565b91506144c1826155df565b604082019050919050565b60006144d9602183614cc8565b91506144e48261562e565b604082019050919050565b60006144fc602f83614cc8565b91506145078261567d565b604082019050919050565b600061451f602183614cc8565b915061452a826156cc565b604082019050919050565b6000614542603183614cc8565b915061454d8261571b565b604082019050919050565b6000614565601d83614cc8565b91506145708261576a565b602082019050919050565b6000614588602f83614cc8565b915061459382615793565b604082019050919050565b6145a781614e25565b82525050565b6145be6145b982614e25565b614f82565b82525050565b6145cd81614e2f565b82525050565b60006145df8284614053565b915081905092915050565b60006145f68285614053565b91506146028284613f76565b6014820191508190509392505050565b600061461e828561416e565b915061462a82846140bd565b91508190509392505050565b60006146418261429c565b915061464d8285614003565b60208201915061465d8284614003565b6020820191508190509392505050565b6000614678826142e2565b915061468482846145ad565b60208201915081905092915050565b60006020820190506146a86000830184613f67565b92915050565b60006080820190506146c36000830187613f58565b6146d06020830186613f67565b6146dd604083018561459e565b81810360608301526146ef818461401a565b905095945050505050565b600060608201905061470f6000830186613f67565b61471c6020830185613f58565b818103604083015261472e818461401a565b9050949350505050565b60006020820190508181036000830152614753818486613f8d565b90509392505050565b60006020820190506147716000830184613fe5565b92915050565b600060208201905061478c6000830184613ff4565b92915050565b60006080820190506147a76000830187613ff4565b6147b4602083018661459e565b6147c16040830185613f67565b6147ce6060830184613ff4565b95945050505050565b60006080820190506147ec6000830187613ff4565b6147f960208301866145c4565b6148066040830185613ff4565b6148136060830184613ff4565b95945050505050565b60006020820190508181036000830152614836818461401a565b905092915050565b600060208201905081810360008301526148588184614084565b905092915050565b6000602082019050818103600083015261487a81846140ee565b905092915050565b6000602082019050818103600083015261489b816141ed565b9050919050565b600060208201905081810360008301526148bb81614210565b9050919050565b600060208201905081810360008301526148db81614233565b9050919050565b600060208201905081810360008301526148fb81614256565b9050919050565b6000602082019050818103600083015261491b81614279565b9050919050565b6000602082019050818103600083015261493b816142bf565b9050919050565b6000602082019050818103600083015261495b81614305565b9050919050565b6000602082019050818103600083015261497b81614328565b9050919050565b6000602082019050818103600083015261499b8161434b565b9050919050565b600060208201905081810360008301526149bb8161436e565b9050919050565b600060208201905081810360008301526149db81614391565b9050919050565b600060208201905081810360008301526149fb816143b4565b9050919050565b60006020820190508181036000830152614a1b816143d7565b9050919050565b60006020820190508181036000830152614a3b816143fa565b9050919050565b60006020820190508181036000830152614a5b8161441d565b9050919050565b60006020820190508181036000830152614a7b81614440565b9050919050565b60006020820190508181036000830152614a9b81614463565b9050919050565b60006020820190508181036000830152614abb81614486565b9050919050565b60006020820190508181036000830152614adb816144a9565b9050919050565b60006020820190508181036000830152614afb816144cc565b9050919050565b60006020820190508181036000830152614b1b816144ef565b9050919050565b60006020820190508181036000830152614b3b81614512565b9050919050565b60006020820190508181036000830152614b5b81614535565b9050919050565b60006020820190508181036000830152614b7b81614558565b9050919050565b60006020820190508181036000830152614b9b8161457b565b9050919050565b6000602082019050614bb7600083018461459e565b92915050565b6000614bc7614bd8565b9050614bd38282614eda565b919050565b6000604051905090565b600067ffffffffffffffff821115614bfd57614bfc61504a565b5b602082029050602081019050919050565b600067ffffffffffffffff821115614c2957614c2861504a565b5b614c3282615079565b9050602081019050919050565b600067ffffffffffffffff821115614c5a57614c5961504a565b5b614c6382615079565b9050602081019050919050565b60008190508160005260206000209050919050565b600081519050919050565b600081519050919050565b600082825260208201905092915050565b600082825260208201905092915050565b600081905092915050565b600082825260208201905092915050565b600081905092915050565b6000614cef82614e25565b9150614cfa83614e25565b9250827fffffffffffffffffffffffffffffffffffffffffffffffffffffffffffffffff03821115614d2f57614d2e614fbd565b5b828201905092915050565b6000614d4582614e25565b9150614d5083614e25565b925082614d6057614d5f614fec565b5b828204905092915050565b6000614d7682614e25565b9150614d8183614e25565b925082821015614d9457614d93614fbd565b5b828203905092915050565b6000614daa82614e05565b9050919050565b6000614dbc82614e05565b9050919050565b60008115159050919050565b6000819050919050565b60007fffffffff0000000000000000000000000000000000000000000000000000000082169050919050565b600073ffffffffffffffffffffffffffffffffffffffff82169050919050565b6000819050919050565b600060ff82169050919050565b82818337600083830152505050565b60005b83811015614e69578082015181840152602081019050614e4e565b83811115614e78576000848401525b50505050565b6000614e8982614e25565b91506000821415614e9d57614e9c614fbd565b5b600182039050919050565b60006002820490506001821680614ec057607f821691505b60208210811415614ed457614ed361501b565b5b50919050565b614ee382615079565b810181811067ffffffffffffffff82111715614f0257614f0161504a565b5b80604052505050565b6000614f1682614e25565b91507fffffffffffffffffffffffffffffffffffffffffffffffffffffffffffffffff821415614f4957614f48614fbd565b5b600182019050919050565b6000614f5f82614f70565b9050919050565b6000819050919050565b6000614f7b8261508a565b9050919050565b6000819050919050565b6000614f9782614e25565b9150614fa283614e25565b925082614fb257614fb1614fec565b5b828206905092915050565b7f4e487b7100000000000000000000000000000000000000000000000000000000600052601160045260246000fd5b7f4e487b7100000000000000000000000000000000000000000000000000000000600052601260045260246000fd5b7f4e487b7100000000000000000000000000000000000000000000000000000000600052602260045260246000fd5b7f4e487b7100000000000000000000000000000000000000000000000000000000600052604160045260246000fd5b6000601f19601f8301169050919050565b60008160601b9050919050565b7f416363657373436f6e74726f6c3a2073656e646572206d75737420626520616e60008201527f2061646d696e20746f206772616e740000000000000000000000000000000000602082015250565b7f4552433732313a207472616e7366657220746f206e6f6e20455243373231526560008201527f63656976657220696d706c656d656e7465720000000000000000000000000000602082015250565b7f4368696c644d696e7461626c654552433732313a20544f4b454e5f455849535460008201527f535f4f4e5f524f4f545f434841494e0000000000000000000000000000000000602082015250565b7f46756e6374696f6e2063616c6c206e6f74207375636365737366756c00000000600082015250565b7f4552433732313a20746f6b656e20616c7265616479206d696e74656400000000600082015250565b7f1901000000000000000000000000000000000000000000000000000000000000600082015250565b7f536166654d6174683a206164646974696f6e206f766572666c6f770000000000600082015250565b7f4368696c644d696e7461626c654552433732313a20494e56414c49445f544f4b60008201527f454e5f4f574e4552200000000000000000000000000000000000000000000000602082015250565b7f4552433732313a207472616e7366657220746f20746865207a65726f2061646460008201527f7265737300000000000000000000000000000000000000000000000000000000602082015250565b7f4552433732313a20617070726f766520746f2063616c6c657200000000000000600082015250565b7f4552433732313a206f70657261746f7220717565727920666f72206e6f6e657860008201527f697374656e7420746f6b656e0000000000000000000000000000000000000000602082015250565b7f416363657373436f6e74726f6c3a2073656e646572206d75737420626520616e60008201527f2061646d696e20746f207265766f6b6500000000000000000000000000000000602082015250565b7f4e61746976654d6574615472616e73616374696f6e3a20494e56414c49445f5360008201527f49474e4552000000000000000000000000000000000000000000000000000000602082015250565b7f4552433732313a20617070726f76652063616c6c6572206973206e6f74206f7760008201527f6e6572206e6f7220617070726f76656420666f7220616c6c0000000000000000602082015250565b7f4368696c644d696e7461626c654552433732313a20494e56414c49445f544f4b60008201527f454e5f4f574e4552000000000000000000000000000000000000000000000000602082015250565b7f4552433732313a2062616c616e636520717565727920666f7220746865207a6560008201527f726f206164647265737300000000000000000000000000000000000000000000602082015250565b7f4368696c644d696e7461626c654552433732313a20455843454544535f42415460008201527f43485f4c494d4954000000000000000000000000000000000000000000000000602082015250565b7f4552433732313a206d696e7420746f20746865207a65726f2061646472657373600082015250565b7f4552433732313a20617070726f76656420717565727920666f72206e6f6e657860008201527f697374656e7420746f6b656e0000000000000000000000000000000000000000602082015250565b7f4552433732314d657461646174613a2055524920736574206f66206e6f6e657860008201527f697374656e7420746f6b656e0000000000000000000000000000000000000000602082015250565b7f4552433732313a207472616e73666572206f6620746f6b656e2074686174206960008201527f73206e6f74206f776e0000000000000000000000000000000000000000000000602082015250565b7f5369676e657220616e64207369676e617475726520646f206e6f74206d61746360008201527f6800000000000000000000000000000000000000000000000000000000000000602082015250565b7f4552433732314d657461646174613a2055524920717565727920666f72206e6f60008201527f6e6578697374656e7420746f6b656e0000000000000000000000000000000000602082015250565b7f4552433732313a20617070726f76616c20746f2063757272656e74206f776e6560008201527f7200000000000000000000000000000000000000000000000000000000000000602082015250565b7f4552433732313a207472616e736665722063616c6c6572206973206e6f74206f60008201527f776e6572206e6f7220617070726f766564000000000000000000000000000000602082015250565b7f416464726573733a2063616c6c20746f206e6f6e2d636f6e7472616374000000600082015250565b7f416363657373436f6e74726f6c3a2063616e206f6e6c792072656e6f756e636560008201527f20726f6c657320666f722073656c660000000000000000000000000000000000602082015250565b6157eb81614d9f565b81146157f657600080fd5b50565b61580281614dc3565b811461580d57600080fd5b50565b61581981614dcf565b811461582457600080fd5b50565b61583081614dd9565b811461583b57600080fd5b50565b61584781614e25565b811461585257600080fd5b50565b61585e81614e2f565b811461586957600080fd5b5056fe4552433732313a207472616e7366657220746f206e6f6e20455243373231526563656976657220696d706c656d656e7465724d6574615472616e73616374696f6e2875696e74323536206e6f6e63652c616464726573732066726f6d2c62797465732066756e6374696f6e5369676e6174757265294552433732313a206f776e657220717565727920666f72206e6f6e6578697374656e7420746f6b656ea26469706673582212209b246b381ace5332158040f1dd42f53a6a41f1ec0292b56f471f2fc504d125a664736f6c63430008040033454950373132446f6d61696e28737472696e67206e616d652c737472696e672076657273696f6e2c6164647265737320766572696679696e67436f6e74726163742c627974657333322073616c7429",
  "linkReferences": {},
  "deployedLinkReferences": {}
}